:100000000C9434000C9446000C9446000C9446006A
:100010000C9446000C9446000C9446000C94460048
:100020000C9446000C9446000C9446000C94CA00B4
:100030000C9446000C9446000C9446000C94460028
:100040000C9446000C9446000C9446000C94460018
:100050000C9446000C9446000C9446000C94460008
:100060000C9446000C94460011241FBECFEFD8E03C
:10007000DEBFCDBF21E0A0E0B1E001C01D92A13004
:10008000B207E1F70E9494000C9477010C940000F1
:10009000CF93DF93CDB7DEB787E290E027E230E081
:1000A000F90120812C7FFC0120838CE790E02CE774
:1000B00030E0F90120812064FC0120838CE790E08E
:1000C0002CE730E0F9012081207FFC0120838AE7C2
:1000D00090E02AE730E0F90120812460FC012083D0
:1000E0008BE790E02BE730E0F90120812360FC01F1
:1000F00020838EE790E02FE3FC0120838AE790E0E5
:100100002AE730E0F90120812868FC0120838AE792
:1001100090E02AE730E0F90120812064FC0120838F
:100120000000DF91CF910895CF93DF93CDB7DEB775
:100130008CE090E00E9434010E94E2000E940A01DB
:100140000E944800789484E290E024E230E0F901D3
:1001500020812360FC0120838AE290E02AE230E0E3
:10016000F90120812260FC0120838091000181300F
:10017000E1F783E290E022E0FC01208382E30E9429
:100180005C0183E30E945C0184E30E945C011092A5
:100190000001EBCF1F920F9200905F000F9211248D
:1001A0008F93CF93DF93CDB7DEB781E080930001CB
:1001B0000000DF91CF918F910F9000925F000F9020
:1001C0001F901895CF93DF93CDB7DEB784E490E00E
:1001D00024E430E0F90120812260FC01208385E4E1
:1001E00090E025E430E0F90120812360FC012083C8
:1001F00087E490E029EFFC0120838EE690E02EE674
:1002000030E0F90120812260FC0120830000DF91B1
:10021000CF910895CF93DF93CDB7DEB781E890E01B
:1002200021E830E0F90120812860FC01208381E889
:1002300090E021E830E0F90120812360FC01208377
:1002400088E890E021E13AE7FC01318320838FE6E2
:1002500090E02FE630E0F90120812260FC0120834C
:100260000000DF91CF910895CF93DF9300D0CDB7F9
:10027000DEB79A83898381EC90E021EC30E0F901CC
:1002800020812860FC01208384EC90E02981FC011E
:10029000208385EC90E025EC30E0F9014081298154
:1002A0003A81232F3327242BFC01208300000F9059
:1002B0000F90DF91CF910895CF93DF931F92CDB729
:1002C000DEB7898380EC90E0FC018081882F90E08C
:1002D00080729927892BB1F386EC90E02981FC018B
:1002E0002083000000000F90DF91CF910895F894D3
:0202F000FFCF3E
:00000001FF
