S019000070726F67726573735F7265766965775F322E7372656314
S11300000C9434000C9446000C9446000C94460066
S11300100C9446000C9446000C9446000C94460044
S11300200C9446000C9446000C9446000C94AA00D0
S11300300C9446000C9446000C9446000C94460024
S11300400C9446000C9446000C9446000C94460014
S11300500C9446000C9446000C9446000C94460004
S11300600C9446000C94460011241FBECFEFD8E038
S1130070DEBFCDBF21E0A0E0B1E001C01D92A530FC
S1130080B207E1F70E9470000C944D020C9400003A
S113009087B18C7F87B9ECE7F0E08081806480834E
S11300A08081807F8083EAE7F0E0808184608083C0
S11300B0ABE7B0E08C9183608C938FE380937E00F8
S11300C080818868808380818064808308956091C2
S11300D00001709101018091020190910301089542
S11300E08CE090E00E94DD000E94BB000E94C900E9
S11300F00E944800789484B1836084B98AB1826094
S11301008AB9809104018823E1F30E946700609317
S113011000017093010180930201909303016091A7
S1130120000170910101809102019091030120E08E
S113013030E048EC52E40E944C010E94BE01DC0114
S1130140CB0163E00E94F1008AE00E94EA00109271
S11301500401D7CF1F920F920FB60F9211248F93E1
S113016082E083B981E0809304018F910F900FBEE8
S11301700F901F90189584B5826084BD85B5836007
S113018085BD89EF87BDEEE6F0E0808182608083E3
S11301900895E1E8F0E08081886080838081836055
S11301A0808381E19AE79093890080938800EFE649
S11301B0F0E08081826080830895E1ECF0E02081AA
S11301C0286020838093C400E5ECF0E08081982BC4
S11301D0908308959091C00095FFFCCF8093C60052
S11301E00895EF92FF920F931F93CF93DF9300D064
S11301F01F92CDB7DEB7AC01062F7C01F694E794CD
S1130200F694E7949701ABE7B4E10E943E02FC0147
S1130210F695E795E98324E62E9FC0012F9F900D64
S11302201124481B590B9A01ADECBCEC0E943E0210
S1130230FC01F695E795F695E795F695E795EA833B
S1130240CF01880F991FEE0FFF1FEE0FFF1FEE0F58
S1130250FF1FE80FF91F4E1B5F0B4B8310E010C00C
S1130260E1E0F0E0EC0FFD1FE10FF11D8081805D06
S11302700E94EA00101303C08EE20E94EA001F5F8E
S1130280133070F30F900F900F90DF91CF911F9167
S11302900F91FF90EF9008950E9460010C94040266
S11302A00E94FD0158F00E94F60140F029F45F3FDE
S11302B029F00C94ED0151110C9438020C94F301C3
S11302C00E94150268F39923B1F3552391F3951B0A
S11302D0550BBB27AA2762177307840738F09F5F63
S11302E05F4F220F331F441FAA1FA9F335D00E2ED0
S11302F03AF0E0E832D091505040E695001CCAF73D
S11303002BD0FE2F29D0660F771F881FBB1F2617FF
S113031037074807AB07B0E809F0BB0B802DBF01D6
S1130320FF2793585F4F3AF09E3F510578F00C94A5
S1130330ED010C9438025F3FE4F3983ED4F38695C4
S113034077956795B795F7959F5FC9F7880F911DC6
S11303509695879597F90895E1E0660F771F881FB2
S1130360BB1F621773078407BA0720F0621B730B65
S1130370840BBA0BEE1F88F7E09508950E941D02C6
S113038088F09F5798F0B92F9927B751B0F0E1F052
S1130390660F771F881F991F1AF0BA95C9F714C002
S11303A0B13091F00E943702B1E008950C94370205
S11303B0672F782F8827B85F39F0B93FCCF386953B
S11303C077956795B395D9F73EF490958095709598
S11303D061957F4F8F4F9F4F089597F99F6780E8EE
S11303E070E060E008959FEF80EC089500240A9483
S11303F01616170618060906089500240A941216FC
S11304001306140605060895092E0394000C11F42E
S1130410882352F0BB0F40F4BF2B11F460FF04C0DB
S11304206F5F7F4F8F4F9F4F089557FD9058440F34
S1130430551F59F05F3F71F04795880F97FB991F3F
S113044061F09F3F79F087950895121613061406FC
S1130450551FF2CF4695F1DF08C016161706180689
S1130460991FF1CF86957105610508940895E89464
S1130470BB2766277727CB0197F90895A29FB00180
S1130480B39FC001A39F700D811D1124911DB29FC4
S1110490700D811D1124911D0895F894FFCF65
S9030000FC
