:100000000C9434000C9451000C9451000C94510049
:100010000C9451000C9451000C9451000C9451001C
:100020000C9451000C9451000C9451000C9440011C
:100030000C9451000C9451000C9451000C945100FC
:100040000C9451000C9451000C9451000C945100EC
:100050000C9451000C9451000C9451000C945100DC
:100060000C9451000C94510011241FBECFEFD8E026
:10007000DEBFCDBF11E0A0E0B1E0E4EAF5E002C0F0
:1000800005900D92A430B107D9F721E0A4E0B1E0CA
:1000900001C01D92AD30B207E1F70E94D4000C946C
:1000A000D0020C940000CF93DF93CDB7DEB78CE77E
:1000B00090E02CE730E0F90120812064FC012083EE
:1000C0008AE790E02AE730E0F90120812460FC0112
:1000D00020838CE790E02CE730E0F9012081207F3D
:1000E000FC0120838CE790E02CE730E0F9012081CF
:1000F0002160FC0120838BE790E02BE730E0F901E1
:1001000020812360FC0120838AE790E02AE730E029
:10011000F90120812062FC0120838AE790E02AE730
:1001200030E0F90120812868FC0120838AE790E013
:100130002AE730E0F90120812064FC0120830000DF
:10014000DF91CF910895CF93DF93CDB7DEB7809144
:10015000060190910701A0910801B0910901BC012D
:10016000CD01DF91CF910895CF93DF93CDB7DEB767
:1001700010920501109204018AE790E02AE730E02E
:10018000F90120812062FC0120830000DF91CF91E2
:100190000895CF93DF93CDB7DEB780910A01909198
:1001A0000B01DF91CF910895CF93DF93CDB7DEB7E9
:1001B0008CE090E00E94C2010E9470010E949801B0
:1001C0000E945300789484E290E024E230E0F90148
:1001D00020812963FC01208387E290E027E230E060
:1001E000F9012081207FFC0120838AE290E02AE24D
:1001F00030E0F90120812260FC01208384E290E05C
:1002000024E230E0F90120812660FC01208387E2AE
:1002100090E027E230E0F90120812063FC01208397
:100220008AE290E02AE230E0F90120812C60FC01B2
:10023000208380910C018130E1F783E290E024E09B
:10024000FC01208380E091E00E9405020E94A3004F
:10025000DC01CB018093060190930701A093080174
:10026000B09309010E94C90063E00E94330285E255
:100270000E94EA018AE00E94EA0110920C01D9CFA3
:100280001F920F9200905F000F9211242F933F93C3
:100290004F935F936F937F938F939F93AF93BF938E
:1002A000EF93FF93CF93DF93CDB7DEB781E08093D9
:1002B0000C010E94B4000000DF91CF91FF91EF91FB
:1002C000BF91AF919F918F917F916F915F914F916E
:1002D0003F912F910F9000925F000F901F90189503
:1002E000CF93DF93CDB7DEB784E490E024E430E031
:1002F000F90120812260FC01208385E490E025E45F
:1003000030E0F90120812360FC01208387E490E044
:1003100029EFFC0120838EE690E02EE630E0F90123
:1003200020812260FC0120830000DF91CF9108959D
:10033000CF93DF93CDB7DEB781E890E021E830E0DE
:10034000F90120812860FC01208381E890E021E808
:1003500030E0F90120812360FC01208388E890E0EF
:1003600021E13AE7FC01318320838FE690E02FE61C
:1003700030E0F90120812260FC0120830000DF9140
:10038000CF910895CF93DF9300D0CDB7DEB79A8396
:10039000898381EC90E021EC30E0F9012081286034
:1003A000FC01208384EC90E02981FC01208385EC12
:1003B00090E025EC30E0F901408129813A81232F3A
:1003C0003327242BFC01208300000F900F90DF9136
:1003D000CF910895CF93DF931F92CDB7DEB7898376
:1003E00080EC90E0FC018081882F90E0807299275A
:1003F000892BB1F386EC90E02981FC012083000079
:1004000000000F90DF91CF9108950F931F93CF932A
:10041000DF9300D01F92CDB7DEB79B838A8319820A
:100420000EC08981882F90E02A813B81820F931F23
:10043000FC0180810E94EA0189818F5F8983898123
:10044000082F10E08A819B810E94C7029927081714
:1004500019073CF300000F900F900F90DF91CF91A0
:100460001F910F910895CF93DF93CDB7DEB72797F4
:100470000FB6F894DEBF0FBECDBF9E838D836F8312
:100480008D819E8196958795969587959C01ABE782
:10049000B4E10E94B802969587958A834D815E816A
:1004A000CA0196958795969587959C01ABE7B4E12F
:1004B0000E94B8029C013695279564E6629FC001B0
:1004C000639F900D11249A01281B390BC9019E834B
:1004D0008D838D819E819C01ADECBCEC0E94B802A5
:1004E0009695879596958795969587958B834D815B
:1004F0005E819A01ADECBCEC0E94B802969587959E
:100500009695879596958795880F991F9C01220F40
:10051000331F220F331F820F931FFA01E81BF90BC1
:10052000CF018C83198217C08981882F90E09E01AA
:100530002E5F3F4F820F931FFC018081805D0E94E0
:10054000EA0199818F81981719F48EE20E94EA01DD
:1005500089818F5F89838981833030F300002796FA
:100560000FB6F894DEBF0FBECDBFDF91CF910895D7
:10057000A29FB001B39FC001A39F700D811D1124E4
:10058000911DB29F700D811D1124911D0895FC01D4
:1005900001900020E9F7809590958E0F9F1F089598
:0405A000F894FFCFFD
:0405A400433A2000B6
:00000001FF
