:100000000C9434000C9451000C9451000C94510049
:100010000C9451000C9451000C9451000C9451001C
:100020000C9451000C9451000C9451000C94AA03B0
:100030000C9451000C9451000C9451000C945100FC
:100040000C9451000C9451000C9451000C945100EC
:100050000C9451000C949F000C9451000C9451008E
:100060000C9451000C94510011241FBECFEFD8E026
:10007000DEBFCDBF11E0A0E0B1E0E4EAFFE002C0E6
:1000800005900D92A63FB107D9F722E0A6EFB1E0A7
:1000900001C01D92A530B207E1F70E944D030C94F8
:1000A000D0070C940000CF93DF93CDB7DEB78CE779
:1000B00090E02CE730E0F90120812064FC012083EE
:1000C0008AE790E02AE730E0F90120812760FC010F
:1000D00020838CE790E02CE730E0F9012081207F3D
:1000E000FC0120838BE790E02BE730E0F9012081D1
:1000F0002360FC0120838AE790E02AE730E0F901E1
:1001000020812062FC0120838EE790E02FE0FC013B
:1001100020838AE790E02AE730E0F901208128680F
:10012000FC0120838AE790E02AE730E0F901208192
:100130002064FC0120830000DF91CF9108951F927D
:100140000F9200905F000F9211242F933F934F93D3
:100150005F936F937F938F939F93AF93BF93EF932F
:10016000FF93CF93DF93CDB7DEB786E290E020E137
:10017000FC01208385E390E022E0FC0120830E94C3
:10018000E6018823F1F088E790E0FC01808191810D
:100190000E941A020E94AA028093F9018CE790E063
:1001A0002CE730E0F9012081207FFC0120838CE7DF
:1001B00090E02CE730E0F90120812160FC012083F0
:1001C000C7C00E94F301882301F188E790E0FC0199
:1001D000808191810E941A020E9448029093FB0143
:1001E0008093FA018CE790E02CE730E0F901208160
:1001F000207FFC0120838CE790E02CE730E0F901C0
:1002000020812260FC012083A3C00E940002882379
:1002100001F188E790E0FC01808191810E941A023F
:100220000E9479029093FD018093FC018CE790E09D
:100230002CE730E0F9012081207FFC0120838CE74E
:1002400090E02CE730E0F90120812260FC0120835E
:100250007FC00E940D02882309F47AC08CE790E0E9
:100260002CE730E0F9012081207FFC01208386E229
:1002700090E020E1FC012083809102029091030232
:100280000196909303028093020288E790E0FC01BC
:10029000808191818736924050F085E290E025E29E
:1002A00030E0F90120812460FC01208309C085E24F
:1002B00090E025E230E0F90120812B7FFC012083D2
:1002C00088E790E0FC018081918187369240B8F107
:1002D00080910002909101028A39914080F583E279
:1002E00090E022E0FC0120838091FE01882341F40C
:1002F00081E08093FE0110920302109202021FC05F
:10030000809102029091030288389105C0F081E04B
:100310008093FF018091A301882341F01092A301F3
:1003200089E290E020E1FC01208305C01092FF01EA
:1003300081E08093A301109203021092020288E7E9
:1003400090E0FC01808191819093010280930002F2
:100350008091F6018F5F8093F6018091F701909173
:10036000F80101969093F8018093F7018091F601CE
:10037000843010F01092F6018091F7019091F8010D
:100380008837910548F08AE790E02AE730E0F901E4
:1003900020812F7DFC01208386E290E020E1FC019A
:1003A00020830000DF91CF91FF91EF91BF91AF913A
:1003B0009F918F917F916F915F914F913F912F917D
:1003C0000F9000925F000F901F901895CF93DF93CE
:1003D000CDB7DEB79091F60181E0992309F080E076
:1003E000DF91CF910895CF93DF93CDB7DEB7909192
:1003F000F60181E0913009F080E0DF91CF9108951E
:10040000CF93DF93CDB7DEB79091F60181E09230C4
:1004100009F080E0DF91CF910895CF93DF93CDB7BE
:10042000DEB79091F60181E0933009F080E0DF9132
:10043000CF910895CF93DF9300D0CDB7DEB79A83E5
:10044000898329813A81C901880F991F880F991FD3
:10045000820F931FCC01A0E0B0E0BC01CD010E944F
:100460002A07DC01CB012FE632E143E85FE3BC0160
:10047000CD010E948206DC01CB01BC01CD010E94AE
:10048000FB06DC01CB010F900F90DF91CF91089517
:10049000CF93DF9300D0CDB7DEB79A83898389816C
:1004A0009A81CC01A0E0B0E0BC01CD010E942A07F6
:1004B000DC01CB0128E43CE544E056E4BC01CD017D
:1004C0000E941606DC01CB0128EC37E04FE550E432
:1004D000BC01CD010E948206DC01CB01BC01CD0133
:1004E0000E94FB06DC01CB010F900F90DF91CF91B2
:1004F0000895CF93DF9300D0CDB7DEB79A83898379
:1005000089819A81CC01A0E0B0E0BC01CD010E94BC
:100510002A07DC01CB0120E030E44CE155E4BC01CA
:10052000CD010E941506DC01CB012AE939E949ED2C
:1005300050E4BC01CD010E948206DC01CB01BC016C
:10054000CD010E94F406DC01CB010F900F90DF91EA
:10055000CF910895CF93DF93CDB7DEB727970FB62E
:10056000F894DEBF0FBECDBF9F838E83198288E2D1
:100570008A831B828091A2018C8389818F5F89830A
:100580008A818D838A81882F90E0880F991F8050FF
:100590009F4FFC01208131818E819F81281739076F
:1005A00088F48A818C838A81282F30E08B81882F80
:1005B00090E0820F931F99230CF4019695958795EF
:1005C0008A831FC08A81882F90E0880F991F8050EE
:1005D0009F4FFC01208131818E819F81281739072F
:1005E000D1F08A818B838A81282F30E08C81882FFB
:1005F00090E0820F931F99230CF4019695958795AF
:100600008A839D818A81981741F089818B3008F413
:10061000B4CF8CE905C0000001C000008A818A5077
:1006200027960FB6F894DEBF0FBECDBFDF91CF91F6
:100630000895CF93DF93CDB7DEB78091F901DF91B5
:10064000CF910895CF93DF93CDB7DEB78091FA01B4
:100650009091FB01DF91CF910895CF93DF93CDB7B8
:10066000DEB78091FC019091FD01DF91CF9108955B
:10067000CF93DF93CDB7DEB71092F8011092F70158
:100680008AE790E02AE730E0F90120812062FC014E
:1006900020830000DF91CF910895FF920F931F9365
:1006A000CF93DF93CDB7DEB78CE090E00E942304B8
:1006B0000E94DA030E94F9030E945300789484E2B6
:1006C00090E024E230E0F90120812963FC012083DD
:1006D00087E290E027E230E0F9012081207FFC01F1
:1006E00020838AE290E02AE230E0F9012081226F43
:1006F000FC01208384E290E024E230E0F9012081D3
:100700002660FC01208387E290E027E230E0F901D7
:1007100020812063FC0120838AE290E02AE230E01D
:10072000F90120812C60FC0120838091040281303A
:10073000E1F70E941903F82E0E942D038C010E94FC
:10074000220328EE33E04F2DB8010E94E7051092F6
:100750000402EBCF1F920F9200905F000F921124C2
:100760002F933F934F935F936F937F938F939F93B9
:10077000AF93BF93EF93FF93CF93DF93CDB7DEB7E4
:1007800081E0809304020E9438030000DF91CF9142
:10079000FF91EF91BF91AF919F918F917F916F9159
:1007A0005F914F913F912F910F9000925F000F90BA
:1007B0001F901895CF93DF93CDB7DEB784E490E018
:1007C00024E430E0F90120812260FC01208385E4EB
:1007D00090E025E430E0F90120812560FC012083D0
:1007E00087E490E02CE7FC0120830000DF91CF91AB
:1007F0000895CF93DF93CDB7DEB781E890E021E88D
:1008000030E0F90120812860FC01208381E890E03C
:1008100021E830E0F90120812560FC01208388E88F
:1008200090E028E03DE3FC01318320838FE690E0F7
:100830002FE630E0F90120812260FC0120830000D6
:10084000DF91CF910895CF93DF9300D0CDB7DEB77E
:100850009A83898381EC90E021EC30E0F9012081DA
:100860002860FC01208384EC90E02981FC01208336
:1008700085EC90E025EC30E0F901408129813A8156
:10088000232F3327242BFC01208300000F900F908F
:10089000DF91CF910895CF93DF931F92CDB7DEB74D
:1008A000898380EC90E0FC018081882F90E0807249
:1008B0009927892BB1F386EC90E02981FC012083F4
:1008C000000000000F90DF91CF9108950F931F93C8
:1008D000CF93DF9300D01F92CDB7DEB79B838A837F
:1008E00019820EC08981882F90E02A813B81820F76
:1008F000931FFC0180810E944B0489818F5F898353
:100900008981082F10E08A819B810E94C70799275F
:10091000081719073CF300000F900F900F90DF911C
:10092000CF911F910F910895CF93DF93CDB7DEB78D
:1009300027970FB6F894DEBF0FBECDBF9E838D8381
:100940006F838D819E8196958795969587959C015D
:10095000ABE7B4E10E94B807969587958A834D81ED
:100960005E81CA0196958795969587959C01ABE720
:10097000B4E10E94B8079C013695279564E6629F12
:10098000C001639F900D11249A01281B390BC901E6
:100990009E838D838D819E819C01ADECBCEC0E9479
:1009A000B8079695879596958795969587958B83A5
:1009B0004D815E819A01ADECBCEC0E94B807969522
:1009C00087959695879596958795880F991F9C0191
:1009D000220F331F220F331F820F931FFA01E81BD0
:1009E000F90BCF018C83198217C08981882F90E081
:1009F0009E012E5F3F4F820F931FFC018081805D1F
:100A00000E944B0499818F81981719F48EE20E94FD
:100A10004B0489818F5F89838981833030F30000A3
:100A200027960FB6F894DEBF0FBECDBFDF91CF91F2
:100A30000895CF93DF9300D0CDB7DEB79A83898333
:100A400084EA91E00E94660489819A819C01ADEC60
:100A5000BCEC0E94B80796958795969587959695D4
:100A6000879560E00E94940483EB91E00E94660405
:100A700000000F900F90DF91CF910895CF93DF93F7
:100A800000D000D0CDB7DEB79C838B8388EB91E09C
:100A90000E9466048B819C8199235CF48DE20E9404
:100AA0004B048B819C819195819591099A838983CF
:100AB00007C080E20E944B048B819C819A838983CA
:100AC00089819A8163E00E94940487EC91E00E94FE
:100AD000660400000F900F900F900F90DF91CF9160
:100AE0000895CF93DF9300D0CDB7DEB78A838DEC26
:100AF00091E00E9466048A8188233CF48DE20E9482
:100B00004B048A818195898305C080E20E944B0451
:100B10008A818983898197E68902912D112495958F
:100B20009595880F880B292F281B822F805D0E94A6
:100B30004B04998187E69802812D1124282F259551
:100B40002595892F880F880B322F381B832F880F0C
:100B5000282F220F220F820F292F281B822F805D22
:100B60000E944B048BED91E00E94660400000F9000
:100B70000F90DF91CF910895CF93DF9300D0CDB741
:100B8000DEB79A83898380EE91E00E9466048981B2
:100B90009A81883E934049F481E30E944B0461E0CE
:100BA00080E090E00E94940408C080E20E944B0420
:100BB00089819A8161E00E9494048EEE91E00E9406
:100BC000660400000F900F90DF91CF910895CF93AE
:100BD000DF93CDB7DEB727970FB6F894DEBF0FBE11
:100BE000CDBF9A8389837C836B834D833F832E8320
:100BF00089819A810E9419058B819C810E943E0502
:100C00008D810E9471058E819F810E94BC0582EFBB
:100C100091E00E946604000027960FB6F894DEBFAC
:100C20000FBECDBFDF91CF9108955058BB27AA27A3
:100C30000E942D060C947E070E94700738F00E94D7
:100C4000770720F039F49F3F19F426F40C946D07D0
:100C50000EF4E095E7FB0C946707E92F0E948F07DD
:100C600058F3BA17620773078407950720F079F4E1
:100C7000A6F50C94B1070EF4E0950B2EBA2FA02D1B
:100C80000B01B90190010C01CA01A0011124FF2739
:100C9000591B99F0593F50F4503E68F11A16F04034
:100CA000A22F232F342F4427585FF3CF4695379533
:100CB0002795A795F0405395C9F77EF41F16BA0BF8
:100CC000620B730B840BBAF09150A1F0FF0FBB1FA6
:100CD000661F771F881FC2F70EC0BA0F621F731FEF
:100CE000841F48F4879577956795B795F7959E3F4C
:100CF00008F0B0CF9395880F08F09927EE0F9795DD
:100D0000879508950E9496060C947E070E947707A7
:100D100058F00E94700740F029F45F3F29F00C94CE
:100D2000670751110C94B2070C946D070E948F074E
:100D300068F39923B1F3552391F3951B550BBB270A
:100D4000AA2762177307840738F09F5F5F4F220F4F
:100D5000331F441FAA1FA9F335D00E2E3AF0E0E846
:100D600032D091505040E695001CCAF72BD0FE2F90
:100D700029D0660F771F881FBB1F26173707480724
:100D8000AB07B0E809F0BB0B802DBF01FF279358DC
:100D90005F4F3AF09E3F510578F00C9467070C9432
:100DA000B2075F3FE4F3983ED4F386957795679555
:100DB000B795F7959F5FC9F7880F911D9695879511
:100DC00097F90895E1E0660F771F881FBB1F621730
:100DD00073078407BA0720F0621B730B840BBA0BEE
:100DE000EE1F88F7E09508950E94FB066894B11104
:100DF0000C94B20708950E94970788F09F5798F0C7
:100E0000B92F9927B751B0F0E1F0660F771F881F0F
:100E1000991F1AF0BA95C9F714C0B13091F00E9429
:100E2000B107B1E008950C94B107672F782F882798
:100E3000B85F39F0B93FCCF3869577956795B39550
:100E4000D9F73EF490958095709561957F4F8F4FBF
:100E50009F4F0895E89409C097FB3EF490958095C4
:100E6000709561957F4F8F4F9F4F9923A9F0F92F70
:100E700096E9BB279395F695879577956795B795EE
:100E8000F111F8CFFAF4BB0F11F460FF1BC06F5FD4
:100E90007F4F8F4F9F4F16C0882311F096E911C0E6
:100EA000772321F09EE8872F762F05C0662371F007
:100EB00096E8862F70E060E02AF09A95660F771F1B
:100EC000881FDAF7880F9695879597F9089597F90F
:100ED0009F6780E870E060E008959FEF80EC0895E0
:100EE00000240A9416161706180609060895002409
:100EF0000A9412161306140605060895092E039483
:100F0000000C11F4882352F0BB0F40F4BF2B11F4F6
:100F100060FF04C06F5F7F4F8F4F9F4F089557FD55
:100F20009058440F551F59F05F3F71F04795880F57
:100F300097FB991F61F09F3F79F0879508951216EE
:100F400013061406551FF2CF4695F1DF08C016169A
:100F500017061806991FF1CF86957105610508944B
:100F60000895E894BB2766277727CB0197F9089562
:100F7000A29FB001B39FC001A39F700D811D1124DA
:100F8000911DB29F700D811D1124911D0895FC01CA
:100F900001900020E9F7809590958E0F9F1F08958E
:040FA000F894FFCFF3
:100FA400DA10BB10991074104A101C10F70FCF0FF1
:100FB400A30F730F3F0F140FE70EB50E800E450EEF
:100FC400160EE40DAD0D730D340D010DCC0C930C08
:100FD400550C140CDF0BA80B6D0B2E0BEC0AB60A88
:100FE4007E0A430A050AC4098F0959091F09E4083E
:100FF400A50872083D080608CD0792076207310765
:10100400FE06C906930668063B060E06DF05AF0515
:101014008805600537050D05E304C0049D047904C3
:1010240054042F041004F103D203B203920378038F
:101034005D03420327030B03F502DE02C702AF027E
:1010440098025001566F6C746167653A2020202025
:1010540020200020560A0D0043757272656E743AA2
:1010640020202020202000206D410A0D0054656DB1
:1010740070657261747572653A200020430A0D0030
:10108400534F433A20202020202020202000250AEE
:061094000D000A0D000032
:00000001FF
