S019000070726F67726573735F7265766965775F322E7372656314
S11300000C9434000C9451000C9451000C94510045
S11300100C9451000C9451000C9451000C94510018
S11300200C9451000C9451000C9451000C94EE006B
S11300300C9451000C9451000C9451000C945100F8
S11300400C9451000C9451000C9451000C945100E8
S11300500C9451000C9451000C9451000C945100D8
S11300600C9451000C94510011241FBECFEFD8E022
S1130070DEBFCDBF11E0A0E0B1E0EEE1F3E002C0ED
S113008005900D92A030B107D9F721E0A0E0B1E0CE
S113009001C01D92A130B207E1F70E94A8000C94A0
S11300A08D010C940000CF93DF93CDB7DEB78CE7BE
S11300B090E02CE730E0F90120812064FC012083EA
S11300C08AE790E02AE730E0F90120812460FC010E
S11300D020838CE790E02CE730E0F9012081207F39
S11300E0FC0120838CE790E02CE730E0F9012081CB
S11300F02160FC0120838BE790E02BE730E0F901DD
S113010020812360FC0120838AE790E02AE730E025
S1130110F90120812062FC0120838EE790E02FE327
S1130120FC0120838AE790E02AE730E0F90120818E
S11301302868FC0120838AE790E02AE730E0F9018F
S113014020812064FC0120830000DF91CF91089579
S1130150CF93DF93CDB7DEB78CE090E00E946501CA
S11301600E9413010E943B010E945300789484E290
S113017090E024E230E0F90120812963FC0120832E
S113018087E290E027E230E0F9012081207FFC0142
S113019020838AE290E02AE230E0F90120812260A3
S11301A0FC01208384E290E024E230E0F901208124
S11301B02660FC01208387E290E027E230E0F90129
S11301C020812063FC0120838AE290E02AE230E06F
S11301D0F90120812C60FC012083FFCF1F920F9234
S11301E000905F000F9211242F938F939F93EF93AE
S11301F0FF93CF93DF93CDB7DEB783E290E022E0A5
S1130200FC01208385E0809300010000DF91CF9101
S1130210FF91EF919F918F912F910F9000925F002A
S11302200F901F901895CF93DF93CDB7DEB784E47A
S113023090E024E430E0F90120812260FC01208375
S113024085E490E025E430E0F90120812360FC019D
S1130250208387E490E029EFFC0120838EE690E080
S11302602EE630E0F90120812260FC0120830000A9
S1130270DF91CF910895CF93DF93CDB7DEB781E8B7
S113028090E021E830E0F90120812860FC0120831E
S113029081E890E021E830E0F90120812360FC014D
S11302A0208388E890E021E13AE7FC013183208350
S11302B08FE690E02FE630E0F90120812260FC0116
S11302C020830000DF91CF910895CF93DF9300D076
S11302D0CDB7DEB79A83898381EC90E021EC30E0DE
S11302E0F90120812860FC01208384EC90E02981BD
S11302F0FC01208385EC90E025EC30E0F90140819D
S113030029813A81232F3327242BFC0120830000E9
S11103100F900F90DF91CF910895F894FFCFD6
S9030000FC
