S019000070726F67726573735F7265766965775F322E7372656314
S11300000C9434000C9451000C9451000C94510045
S11300100C9451000C9451000C9451000C94510018
S11300200C9451000C9451000C9451000C948C01CC
S11300300C9451000C9451000C9451000C945100F8
S11300400C9451000C9451000C9451000C945100E8
S11300500C9451000C94A8000C9451000C94510081
S11300600C9451000C94510011241FBECFEFD8E022
S1130070DEBFCDBF11E0A0E0B1E0EAE6F8E002C0E7
S113008005900D92A435B107D9F721E0A4E5B1E0BC
S113009001C01D92AB35B207E1F70E9432010C9406
S11300A033040C940000CF93DF93CDB7DEB78CE715
S11300B090E02CE730E0F90120812064FC012083EA
S11300C08AE790E02AE730E0F90120812760FC010B
S11300D020838CE790E02CE730E0F9012081207F39
S11300E0FC0120838CE790E02CE730E0F9012081CB
S11300F02160FC0120838BE790E02BE730E0F901DD
S113010020812360FC0120838AE790E02AE730E025
S1130110F90120812062FC0120838EE790E02FE02A
S1130120FC0120838AE790E02AE730E0F90120818E
S11301302868FC0120838AE790E02AE730E0F9018F
S113014020812064FC0120830000DF91CF91089579
S11301501F920F9200905F000F9211242F933F93F0
S11301604F935F936F937F938F939F93AF93BF93BB
S1130170EF93FF93CF93DF93CDB7DEB785E390E0A2
S113018022E0FC01208386E290E020E1FC01208350
S113019088E790E0FC018081918190930101809334
S11301A000018091540190915501C29790F08AE723
S11301B090E02AE730E0F90120812F7DFC012083C3
S11301C088E290E028E230E0F90120812062FC011D
S11301D0208388E790E0FC0180819181CC01A0E03C
S11301E0B0E0BC01CD010E94DE03DC01CB018093B1
S11301F0560190935701A0935801B09359018091EF
S113020054019091550101969093550180935401A6
S11302100000DF91CF91FF91EF91BF91AF919F913A
S11302208F917F916F915F914F913F912F910F909B
S113023000925F000F901F901895CF93DF93CDB776
S1130240DEB710925501109254018AE790E02AE734
S113025030E0F90120812062FC0120830000DF915D
S1130260CF910895CF93DF93CDB7DEB78CE090E0C4
S11302700E9405020E94BC010E94DB010E945300FF
S1130280789484E290E024E230E0F901208129634B
S1130290FC01208387E290E027E230E0F90120812D
S11302A0207FFC0120838AE290E02AE230E0F90119
S11302B020812260FC01208384E290E024E230E08B
S11302C0F90120812660FC01208387E290E027E287
S11302D030E0F90120812063FC0120838AE290E070
S11302E02AE230E0F90120812C60FC012083809116
S11302F05A018130E1F783E290E022E0FC0120839F
S113030028EE33E045EE64EE70E08EEB9AE00E9456
S1130310B00310925A01EBCF1F920F9200905F002E
S11303200F9211242F933F934F935F936F937F9377
S11303308F939F93AF93BF93EF93FF93CF93DF93E9
S1130340CDB7DEB781E080935A010E941D01000001
S1130350DF91CF91FF91EF91BF91AF919F918F91D9
S11303607F916F915F914F913F912F910F900092E8
S11303705F000F901F901895CF93DF93CDB7DEB732
S113038084E490E024E430E0F90120812260FC015F
S1130390208385E490E025E430E0F90120812560A4
S11303A0FC01208387E490E02CE7FC01208300001B
S11303B0DF91CF910895CF93DF93CDB7DEB781E876
S11303C090E021E830E0F90120812860FC012083DD
S11303D081E890E021E830E0F90120812560FC010A
S11303E0208388E890E028E03DE3FC01318320830A
S11303F08FE690E02FE630E0F90120812260FC01D5
S113040020830000DF91CF910895CF93DF9300D034
S1130410CDB7DEB79A83898381EC90E021EC30E09C
S1130420F90120812860FC01208384EC90E029817B
S1130430FC01208385EC90E025EC30E0F90140815B
S113044029813A81232F3327242BFC0120830000A8
S11304500F900F90DF91CF910895CF93DF931F9268
S1130460CDB7DEB7898380EC90E0FC018081882FD2
S113047090E080729927892BB1F386EC90E0298172
S1130480FC012083000000000F90DF91CF910895BC
S11304900F931F93CF93DF9300D01F92CDB7DEB796
S11304A09B838A8319820EC08981882F90E02A81D8
S11304B03B81820F931FFC0180810E942D02898160
S11304C08F5F89838981082F10E08A819B810E9434
S11304D02A049927081719073CF300000F900F907E
S11304E00F90DF91CF911F910F910895CF93DF93D8
S11304F0CDB7DEB727970FB6F894DEBF0FBECDBFDA
S11305009E838D836F838D819E8196958795969525
S113051087959C01ABE7B4E10E941B0496958795EF
S11305208A834D815E81CA019695879596958795B4
S11305309C01ABE7B4E10E941B049C01369527950E
S113054064E6629FC001639F900D11249A01281BE9
S1130550390BC9019E838D838D819E819C01ADECF5
S1130560BCEC0E941B049695879596958795969565
S113057087958B834D815E819A01ADECBCEC0E9422
S11305801B04969587959695879596958795880FDC
S1130590991F9C01220F331F220F331F820F931FB9
S11305A0FA01E81BF90BCF018C83198217C08981EA
S11305B0882F90E09E012E5F3F4F820F931FFC0116
S11305C08081805D0E942D0299818F81981719F492
S11305D08EE20E942D0289818F5F89838981833015
S11305E030F3000027960FB6F894DEBF0FBECDBFE0
S11305F0DF91CF910895CF93DF9300D0CDB7DEB7CD
S11306009A83898382E091E00E94480289819A81D9
S11306109C01ADECBCEC0E941B04969587959695C5
S113062087959695879560E00E94760281E191E036
S11306300E94480200000F900F90DF91CF9108951F
S1130640CF93DF9300D0CDB7DEB79A83898386E159
S113065091E00E94480289819A8163E00E947602B7
S113066085E291E00E94480200000F900F90DF9114
S1130670CF910895CF93DF9300D0CDB7DEB78A83AF
S11306808BE291E00E9448028A8188233CF48DE247
S11306900E942D028A818195898305C080E20E948F
S11306A02D028A818983898197E68902912D1124FB
S11306B095959595880F880B292F281B822F805D8F
S11306C00E942D02998187E69802812D1124282FFA
S11306D025952595892F880F880B322F381B832F5A
S11306E0880F282F220F220F820F292F281B822FD9
S11306F0805D0E942D0289E391E00E94480200007F
S11307000F900F90DF91CF910895CF93DF9300D096
S1130710CDB7DEB79A8389838EE391E00E944802C5
S113072089819A81883E934049F481E30E942D0295
S113073061E080E090E00E94760208C080E20E94BE
S11307402D0289819A8161E00E9476028CE491E015
S11307500E94480200000F900F90DF91CF910895FE
S1130760CF93DF93CDB7DEB727970FB6F894DEBFEC
S11307700FBECDBF9A8389837C836B834D833F8374
S11307802E8389819A810E94FB028B819C810E9425
S113079020038D810E943A038E819F810E948503EC
S11307A080E591E00E944802000027960FB6F89475
S11307B0DEBF0FBECDBFDF91CF910895E89409C08D
S11307C097FB3EF490958095709561957F4F8F4F80
S11307D09F4F9923A9F0F92F96E9BB279395F69596
S11307E0879577956795B795F111F8CFFAF4BB0F14
S11307F011F460FF1BC06F5F7F4F8F4F9F4F16C078
S1130800882311F096E911C0772321F09EE8872F01
S1130810762F05C0662371F096E8862F70E060E0BD
S11308202AF09A95660F771F881FDAF7880F969536
S1130830879597F90895A29FB001B39FC001A39F24
S1130840700D811D1124911DB29F700D811D112405
S1130850911D0895FC0101900020E9F78095909581
S10D08608E0F9F1F0895F894FFCF38
S113086AD301566F6C746167653A202020202020DA
S113087A0020560A0D0043757272656E743A202080
S113088A2020202000206D410A0D0054656D7065FA
S113089A7261747572653A200020430A0D00534F41
S11308AA433A20202020202020202000250A0D0061
S10708BA0A0D00001F
S9030000FC
