:100000000C9434000C9451000C9451000C94510049
:100010000C9451000C9451000C9451000C9451001C
:100020000C9451000C9451000C9451000C946305F5
:100030000C9451000C9451000C9451000C945100FC
:100040000C9451000C9451000C9451000C945100EC
:100050000C9451000C94A8000C9451000C94510085
:100060000C9451000C94510011241FBECFEFD8E026
:10007000DEBFCDBF11E0A0E0B1E0E6E5F4E102C0F3
:1000800005900D92A43FB107D9F722E0A4EFB1E0AB
:1000900001C01D92A830B207E1F70E949F040C94A2
:1000A000290A0C940000CF93DF93CDB7DEB78CE71D
:1000B00090E02CE730E0F90120812064FC012083EE
:1000C0008AE790E02AE730E0F90120812760FC010F
:1000D00020838CE790E02CE730E0F9012081217F3C
:1000E000FC0120838CE790E02CE730E0F9012081CF
:1000F0002160FC0120838BE790E02BE730E0F901E1
:1001000020812360FC0120838AE790E02AE730E029
:10011000F90120812062FC0120838EE790E02FE02E
:10012000FC0120838AE790E02AE730E0F901208192
:100130002868FC0120838AE790E02AE730E0F90193
:1001400020812064FC0120830000DF91CF9108957D
:100150001F920F9200905F000F921124EF92FF9276
:100160000F931F932F933F934F935F936F937F93BF
:100170008F939F93AF93BF93EF93FF93CF93DF93AF
:10018000CDB7DEB785E390E022E0FC0120830E943A
:100190002A03882309F441C088E790E0FC018081AC
:1001A00091818A39910540F088E790E0FC018081D7
:1001B00091818736934050F088E290E028E230E069
:1001C000F90120812062FC01208309C088E290E0CF
:1001D00028E230E0F90120812F7DFC01208388E7AF
:1001E00090E0FC01808191810E945E030E94E70300
:1001F0008093F7018CE790E02CE730E0F901208153
:10020000207FFC0120838CE790E02CE730E0F901AF
:1002100020812260FC012083E0C10E9437038823F3
:1002200009F4B2C088E790E0FC01808191818A39AD
:10023000910540F088E790E0FC018081918187364C
:10024000934050F088E290E028E230E0F90120810C
:100250002062FC01208309C088E290E028E230E0BF
:10026000F90120812F7DFC01208388E790E0FC01CB
:10027000808191810E945E030E948C039093F9011A
:100280008093F80180910602882321F08091050275
:10029000813079F58091F8019091F9018A559A4061
:1002A000092E000CAA0BBB0BBC01CD010E94EF086C
:1002B000DC01CB0120E030E844E554E4BC01CD0191
:1002C0000E944508DC01CB0120E030E04AE754E41D
:1002D000BC01CD010E94A409DC01CB018093FC018B
:1002E0009093FD01A093FE01B093FF0181E0809304
:1002F00006028091FC019091FD01A091FE01B09158
:10030000FF0120E030E04AE754E4BC01CD010E9447
:100310009F0918166CF480E090E0AAE7B4E480939B
:10032000FC019093FD01A093FE01B093FF0119C061
:100330008091FC019091FD01A091FE01B091FF011F
:1003400020E030E0A901BC01CD010E9440088823D3
:1003500044F41092FC011092FD011092FE011092E3
:10036000FF018CE790E02CE730E0F9012081207F4D
:10037000FC0120838CE790E02CE730E0F90120813C
:100380002360FC01208329C10E944403882309F4CF
:10039000C1C088E790E0FC01808191818A39910594
:1003A00040F088E790E0FC0180819181873693409E
:1003B00050F088E290E028E230E0F90120812062EC
:1003C000FC01208309C088E290E028E230E0F901D6
:1003D00020812F7DFC01208388E790E0FC01808153
:1003E00091810E945E030E94BD039093FB01809364
:1003F000FA018091FA019091FB0103975CF48091DE
:10040000FA019091FB018E3F9F4F24F081E0809391
:10041000050276C0109205028091FA019091FB01CD
:10042000092E000CAA0BBB0BBC01CD010E94EF08EA
:10043000DC01CB012FE632E143E05DE3BC01CD01FD
:100440000E94A409DC01CB0120E030E04CEC51E437
:10045000BC01CD010E944508DC01CB017C018D016E
:100460008091FC019091FD01A091FE01B091FF01EE
:100470009C01AD01C801B7010E94D407DC01CB018A
:100480008093FC019093FD01A093FE01B093FF01C6
:100490008091FC019091FD01A091FE01B091FF01BE
:1004A00020E030E04AE754E4BC01CD010E949F09FE
:1004B00018166CF480E090E0AAE7B4E48093FC01A5
:1004C0009093FD01A093FE01B093FF0119C08091AC
:1004D000FC019091FD01A091FE01B091FF0120E08F
:1004E00030E0A901BC01CD010E944008882344F4FA
:1004F0001092FC011092FD011092FE011092FF017A
:100500008CE790E02CE730E0F9012081207FFC01AE
:10051000208363C00E945103882309F45EC08CE7E6
:1005200090E02CE730E0F9012081207FFC0120835E
:100530008CE790E02CE730E0F90120812160FC019C
:10054000208380910302909104020196909304020B
:100550008093030288E790E0FC01808191818736D7
:10056000924090F180910102909102028A3991406B
:1005700058F580910002882341F481E080930002C5
:1005800010920402109203021FC080910302909106
:100590000402829760F08091A301882341F01092B9
:1005A000A30186E290E020E1FC01208309C0809154
:1005B0000302909104024E9718F481E08093A30106
:1005C000109204021092030288E790E0FC018081FF
:1005D000918190930202809301028091F4018F5FD8
:1005E0008093F4018091F401843010F01092F401B2
:1005F0008091F5019091F60101969093F601809318
:10060000F5018091F5019091F6018837910548F048
:100610008AE790E02AE730E0F90120812F7DFC0194
:1006200020830000DF91CF91FF91EF91BF91AF91B7
:100630009F918F917F916F915F914F913F912F91FA
:100640001F910F91FF90EF900F9000925F000F901D
:100650001F901895CF93DF93CDB7DEB79091F4013B
:1006600081E0992309F080E0DF91CF910895CF9345
:10067000DF93CDB7DEB79091F40181E0913009F0BE
:1006800080E0DF91CF910895CF93DF93CDB7DEB7B0
:100690009091F40181E0923009F080E0DF91CF91F8
:1006A0000895CF93DF93CDB7DEB79091F40181E049
:1006B000933009F080E0DF91CF910895CF93DF93DD
:1006C00000D0CDB7DEB79A83898329813A81C901E9
:1006D000880F991F880F991F820F931FCC01A0E0EC
:1006E000B0E0BC01CD010E94ED08DC01CB012FE69A
:1006F00032E143E85FE3BC01CD010E944508DC0123
:10070000CB01BC01CD010E94BE08DC01CB010F90E2
:100710000F90DF91CF910895CF93DF9300D0CDB7A5
:10072000DEB79A83898389819A81CC01A0E0B0E009
:10073000BC01CD010E94ED08DC01CB0128E43CE5C1
:1007400044E056E4BC01CD010E94D407DC01CB019A
:1007500028EC37E04FE550E4BC01CD010E9445088C
:10076000DC01CB01BC01CD010E94BE08DC01CB0144
:100770000F900F90DF91CF910895CF93DF9300D02A
:10078000CDB7DEB79A83898389819A81845C994049
:10079000092E000CAA0BBB0BBC01CD010E94EF0877
:1007A000DC01CB012AE939E949ED50E4BC01CD0176
:1007B0000E944508DC01CB01BC01CD010E94B708B5
:1007C000DC01CB010F900F90DF91CF910895CF9373
:1007D000DF93CDB7DEB727970FB6F894DEBF0FBE15
:1007E000CDBF9F838E83198288E28A831B8280918A
:1007F000A2018C8389818F5F89838A818D838A811D
:10080000882F90E0880F991F80509F4FFC01208116
:1008100031818E819F812817390788F48A818C83E2
:100820008A81282F30E08B81882F90E0820F931FE0
:1008300099230CF40196959587958A831FC08A8128
:10084000882F90E0880F991F80509F4FFC012081D6
:1008500031818E819F8128173907D1F08A818B835E
:100860008A81282F30E08C81882F90E0820F931F9F
:1008700099230CF40196959587958A839D818A81A9
:10088000981741F089818B3008F4B4CF8CE905C00A
:10089000000001C000008A818A5027960FB6F894A4
:1008A000DEBF0FBECDBFDF91CF910895CF93DF9311
:1008B000CDB7DEB78091F701DF91CF910895CF9347
:1008C000DF93CDB7DEB78091F8019091F901DF9108
:1008D000CF910895CF93DF93CDB7DEB78091FA0122
:1008E0009091FB01DF91CF910895CF93DF93CDB726
:1008F000DEB78091FC019091FD01A091FE01B091C5
:10090000FF01BC01CD010E94B708DC01CB01DF91E2
:10091000CF910895CF93DF93CDB7DEB71092F60154
:100920001092F5018AE790E02AE730E0F901208192
:100930002062FC0120830000DF91CF910895DF92B7
:10094000EF92FF920F931F93CF93DF93CDB7DEB754
:100950008CE090E00E94E1050E9498050E94B70596
:100960000E945300789484E290E024E230E0F901A0
:1009700020812160FC01208387E290E027E230E0C3
:10098000F9012081207FFC01208387E290E027E2AB
:1009900030E0F90120812063FC0120838AE290E0AD
:1009A0002AE230E0F9012081206CFC01208384E2FE
:1009B00090E024E230E0F90120812063FC012083F3
:1009C0008AE290E02AE230E0F90120812C60FC010B
:1009D00020830E9475048B3992409CF08BE290E05A
:1009E0002BE230E0F9012081206CFC01208385E2BC
:1009F00090E025E230E0F90120812160FC012083B4
:100A00004AC00E9475048E349140E4F08BE290E07D
:100A10002BE230E0F90120812F7BFC0120838BE267
:100A200090E02BE230E0F90120812068FC01208376
:100A300085E290E025E230E0F90120812160FC01AF
:100A4000208329C00E9475040B979CF08BE290E0F4
:100A50002BE230E0F90120812F73FC01208385E235
:100A600090E025E230E0F90120812160FC01208343
:100A700012C08BE290E02BE230E0F90120812F736D
:100A8000FC01208385E290E025E230E0F90120813D
:100A90002E7FFC01208380910702813009F099CFDD
:100AA0000E9475047C010E945604D82E0E946A049C
:100AB0008C010E945F0497014D2DB8010E94A5078B
:100AC0001092070286CF1F920F9200905F000F9244
:100AD00011242F933F934F935F936F937F938F9343
:100AE0009F93AF93BF93EF93FF93CF93DF93CDB7D4
:100AF000DEB781E0809307020E948A0485E390E0DC
:100B000022E0FC0120830000DF91CF91FF91EF9163
:100B1000BF91AF919F918F917F916F915F914F9115
:100B20003F912F910F9000925F000F901F901895AA
:100B3000CF93DF93CDB7DEB784E490E024E430E0D8
:100B4000F90120812260FC01208385E490E025E406
:100B500030E0F90120812560FC01208387E490E0EA
:100B60002CE7FC0120830000DF91CF910895CF9303
:100B7000DF93CDB7DEB781E890E021E830E0F901FE
:100B800020812860FC01208381E890E021E830E0AA
:100B9000F90120812560FC01208388E890E028E0AD
:100BA0003DE3FC01318320838FE690E02FE630E0C7
:100BB000F90120812260FC0120830000DF91CF91A8
:100BC0000895CF93DF9300D0CDB7DEB79A838983A2
:100BD00081EC90E021EC30E0F90120812860FC01FB
:100BE000208384EC90E02981FC01208385EC90E057
:100BF00025EC30E0F901408129813A81232F332708
:100C0000242BFC01208300000F900F90DF91CF91E7
:100C10000895CF93DF931F92CDB7DEB7898380EC21
:100C200090E0FC018081882F90E080729927892BC9
:100C3000B1F386EC90E02981FC01208300000000E4
:100C40000F90DF91CF9108950F931F93CF93DF9370
:100C500000D01F92CDB7DEB79B838A8319820EC066
:100C60008981882F90E02A813B81820F931FFC01AC
:100C700080810E94090689818F5F89838981082F7D
:100C800010E08A819B810E94200A99270817190782
:100C90003CF300000F900F900F90DF91CF911F91C8
:100CA0000F910895CF93DF93CDB7DEB727970FB697
:100CB000F894DEBF0FBECDBF9E838D836F838D8181
:100CC0009E8196958795969587959C01ABE7B4E1B3
:100CD0000E94110A969587958A834D815E81CA018B
:100CE00096958795969587959C01ABE7B4E10E9410
:100CF000110A9C013695279564E6629FC001639FA7
:100D0000900D11249A01281B390BC9019E838D83F4
:100D10008D819E819C01ADECBCEC0E94110A9695E0
:100D2000879596958795969587958B834D815E815E
:100D30009A01ADECBCEC0E94110A969587959695A8
:100D4000879596958795880F991F9C01220F331FD1
:100D5000220F331F820F931FFA01E81BF90BCF01FB
:100D60008C83198217C08981882F90E09E012E5FA5
:100D70003F4F820F931FFC018081805D0E94090616
:100D800099818F81981719F48EE20E940906898152
:100D90008F5F89838981833030F3000027960FB6F7
:100DA000F894DEBF0FBECDBFDF91CF910895CF93F2
:100DB000DF9300D0CDB7DEB79A83898384EA91E0D0
:100DC0000E94240689819A819C01ADECBCEC0E94B2
:100DD000110A96958795969587959695879560E0E3
:100DE0000E94520682EB91E00E94240600000F90C0
:100DF0000F90DF91CF910895CF93DF9300D000D073
:100E0000CDB7DEB79C838B8387EB91E00E942406ED
:100E10008B819C8199235CF48DE20E9409068B8171
:100E20009C819195819591099A83898307C080E27D
:100E30000E9409068B819C819A83898389819A818A
:100E400063E00E94520685EC91E00E9424060000B7
:100E50000F900F900F900F90DF91CF910895CF9347
:100E6000DF9300D0CDB7DEB78A838BEC91E00E9490
:100E700024068A8188233CF48DE20E9409068A8137
:100E80008195898305C080E20E9409068A81898351
:100E9000898197E68902912D112495959595880F62
:100EA000880B292F281B822F805D0E9409069981BB
:100EB00087E69802812D1124282F25952595892FC5
:100EC000880F880B322F381B832F880F282F220F73
:100ED000220F820F292F281B822F805D0E94090676
:100EE0008AED91E00E94240600000F900F90DF91A0
:100EF000CF910895CF93DF9300D0CDB7DEB79A831B
:100F000089838FED91E00E94240689819A81883E31
:100F1000934049F481E30E94090661E080E090E09B
:100F20000E94520608C080E20E94090689819A81C7
:100F300061E00E9452068CEE91E00E9424060000BF
:100F40000F900F90DF91CF910895CF93DF93CDB79E
:100F5000DEB727970FB6F894DEBF0FBECDBF9A83DA
:100F600089837C836B834D833F832E8389819A8120
:100F70000E94D7068B819C810E94FC068D810E9475
:100F80002F078E819F810E947A0781EF91E00E9456
:100F90002406000027960FB6F894DEBF0FBECDBF23
:100FA000DF91CF9108955058BB27AA270E94EB07E5
:100FB0000C9465090E94570938F00E945E0920F0E0
:100FC00039F49F3F19F426F40C9454090EF4E0957B
:100FD000E7FB0C944E09E92F0E94760958F3BA17E3
:100FE000620773078407950720F079F4A6F50C943F
:100FF00098090EF4E0950B2EBA2FA02D0B01B90124
:1010000090010C01CA01A0011124FF27591B99F07E
:10101000593F50F4503E68F11A16F040A22F232F8A
:10102000342F4427585FF3CF469537952795A795DA
:10103000F0405395C9F77EF41F16BA0B620B730B81
:10104000840BBAF09150A1F0FF0FBB1F661F771FF2
:10105000881FC2F70EC0BA0F621F731F841F48F4A7
:10106000879577956795B795F7959E3F08F0B0CF30
:101070009395880F08F09927EE0F97958795089517
:101080000E942A0908F481E008950E9459080C94EE
:1010900065090E945E0958F00E94570940F029F442
:1010A0005F3F29F00C944E0951110C9499090C944E
:1010B00054090E94760968F39923B1F3552391F3FB
:1010C000951B550BBB27AA2762177307840738F0B7
:1010D0009F5F5F4F220F331F441FAA1FA9F335D014
:1010E0000E2E3AF0E0E832D091505040E695001CC8
:1010F000CAF72BD0FE2F29D0660F771F881FBB1F82
:10110000261737074807AB07B0E809F0BB0B802D5F
:10111000BF01FF2793585F4F3AF09E3F510578F08B
:101120000C944E090C9499095F3FE4F3983ED4F374
:10113000869577956795B795F7959F5FC9F7880F5F
:10114000911D9695879597F90895E1E0660F771FB1
:10115000881FBB1F621773078407BA0720F0621B42
:10116000730B840BBA0BEE1F88F7E09508950E946D
:10117000BE086894B1110C94990908950E947E09E3
:1011800088F09F5798F0B92F9927B751B0F0E1F048
:10119000660F771F881F991F1AF0BA95C9F714C0F8
:1011A000B13091F00E949809B1E008950C9498092B
:1011B000672F782F8827B85F39F0B93FCCF3869531
:1011C00077956795B395D9F73EF49095809570958E
:1011D00061957F4F8F4F9F4F0895E89409C097FB0B
:1011E0003EF490958095709561957F4F8F4F9F4FFE
:1011F0009923A9F0F92F96E9BB279395F695879542
:1012000077956795B795F111F8CFFAF4BB0F11F404
:1012100060FF1BC06F5F7F4F8F4F9F4F16C08823AB
:1012200011F096E911C0772321F09EE8872F762FE1
:1012300005C0662371F096E8862F70E060E02AF022
:101240009A95660F771F881FDAF7880F969587950E
:1012500097F90895990F0008550FAA0BE0E8FEEFE3
:1012600016161706E807F907C0F012161306E4076A
:10127000F50798F0621B730B840B950B39F40A2663
:1012800061F0232B242B252B21F408950A2609F441
:10129000A140A6958FEF811D811D089597F99F6745
:1012A00080E870E060E008959FEF80EC08950024EE
:1012B0000A941616170618060906089500240A94BB
:1012C00012161306140605060895092E0394000C41
:1012D00011F4882352F0BB0F40F4BF2B11F460FFD0
:1012E00004C06F5F7F4F8F4F9F4F089557FD9058F9
:1012F000440F551F59F05F3F71F04795880F97FBDA
:10130000991F61F09F3F79F0879508951216130693
:101310001406551FF2CF4695F1DF08C016161706C2
:101320001806991FF1CF86957105610508940895F7
:10133000E894BB2766277727CB0197F908950E9489
:101340002A0908F48FEF08950E94B7090C946509E3
:101350000E94570938F00E945E0920F0952311F091
:101360000C944E090C94540911240C9499090E9470
:10137000760970F3959FC1F3950F50E0551F629F5A
:10138000F001729FBB27F00DB11D639FAA27F00DDE
:10139000B11DAA1F649F6627B00DA11D661F829F05
:1013A0002227B00DA11D621F739FB00DA11D621FEA
:1013B000839FA00D611D221F749F3327A00D611D07
:1013C000231F849F600D211D822F762F6A2F1124E9
:1013D0009F5750409AF0F1F088234AF0EE0FFF1F1C
:1013E000BB1F661F771F881F91505040A9F79E3F73
:1013F000510580F00C944E090C9499095F3FE4F379
:10140000983ED4F3869577956795B795F795E795C8
:101410009F5FC1F7FE2B880F911D9695879597F9D1
:101420000895A29FB001B39FC001A39F700D811DBD
:101430001124911DB29F700D811D1124911D0895DD
:10144000FC0101900020E9F7809590958E0F9F1F79
:061450000895F894FFCF9F
:10145600DA10BB10991074104A101C10F70FCF0F3A
:10146600A30F730F3F0F140FE70EB50E800E450E38
:10147600160EE40DAD0D730D340D010DCC0C930C51
:10148600550C140CDF0BA80B6D0B2E0BEC0AB60AD1
:101496007E0A430A050AC4098F0959091F09E40887
:1014A600A50872083D080608CD07920762073107AE
:1014B600FE06C906930668063B060E06DF05AF055F
:1014C6008805600537050D05E304C0049D0479040D
:1014D60054042F041004F103D203B20392037803D9
:1014E6005D03420327030B03F502DE02C702AF02C8
:1014F60098025001566F6C746167653A202020206F
:10150600200020560A0D0043757272656E743A20EB
:101516002020202000206D410A0D0054656D706565
:101526007261747572653A20200020430A0D0053DB
:101536004F433A20202020202020200020250A0D7D
:04154600000A0D008A
:00000001FF
