S015000050495F436F6E74726F6C6C65722E73726563F3
S11300000C9434000C9446000C9446000C94460066
S11300100C9446000C9446000C9446000C94460044
S11300200C9446000C9446000C9446000C94460034
S11300300C9446000C9446000C9446000C94460024
S11300400C9446000C9446000C9446000C94460014
S11300500C9446000C9446000C9446000C94460004
S11300600C9446000C94460011241FBECFEFD8E038
S1130070DEBFCDBF21E0A0E0B1E001C01D92A630FB
S1130080B207E1F70E9472000C94DD020C940000A8
S113009087B18E7F87B988B18E7F88B9ECE7F0E0AD
S11300A0808180648083EAE7F0E08081866E8083CB
S11300B0EBE7F0E080818460808381E080937E00C0
S11300C0089580917A0084FFFCCFEAE7F0E0808114
S11300D08061808385B3816085BB80917800909135
S11300E0790008950E940C010E94480084B1806246
S11300F084B90E946100909301018093000180E221
S113010083B9809100019091010160E072E00E9446
S1130110B90088BDEECF0F931F93CF93DF93062FC3
S1130120172FD82FC92F20E030E040E452E40E947A
S11301306B0218168CF020E030E040E452EC602FA3
S1130140712F8D2F9C2F0E94850188234CF400E091
S113015010E0D0E4C2EC04C000E010E0D0E4C2E45B
S1130160602F712F8D2F9C2FDF91CF911F910F91B5
S11301700895CF92DF92EF92FF929B01A0E0B0E04E
S1130180BC01CD01621B730B810991090E94BB0163
S11301906B017C0120E030E046E953E40E947002E8
S11301A027E137EB41ED58E30E94700220910201F0
S11301B03091030140910401509105010E941901FD
S11301C00E948B009B01AC016093020170930301B8
S11301D08093040190930501C701B6010E9419019F
S11301E00E948B0027E636E64EE75FE30E9470022A
S11301F020E030E04FE952E40E94190120E030E0B1
S113020040E05FE30E9419010E948A01862FFF905B
S1130210EF90DF90CF90089583E284BD89E085BD9F
S11302208FE987BD8FE488BD8AB180628AB9089559
S11302305058BB27AA270E9430010C9431020E9417
S1130240230238F00E942A0220F039F49F3F19F467
S113025026F40C9420020EF4E095E7FB0C941A02A9
S1130260E92F0E94420258F3BA1762077307840702
S1130270950720F079F4A6F50C9464020EF4E09549
S11302800B2EBA2FA02D0B01B90190010C01CA014C
S1130290A0011124FF27591B99F0593F50F4503EF7
S11302A068F11A16F040A22F232F342F4427585FE9
S11302B0F3CF469537952795A795F0405395C9F701
S11302C07EF41F16BA0B620B730B840BBAF09150B9
S11302D0A1F0FF0FBB1F661F771F881FC2F70EC058
S11302E0BA0F621F731F841F48F48795779567952B
S11302F0B795F7959E3F08F0B0CF9395880F08F017
S11303009927EE0F9795879508950E94F60108F4B2
S113031081E008950E944A0288F09F5798F0B92F0F
S11303209927B751B0F0E1F0660F771F881F991F26
S11303301AF0BA95C9F714C0B13091F00E94640262
S1130340B1E008950C946402672F782F8827B85F72
S113035039F0B93FCCF3869577956795B395D9F77E
S11303603EF490958095709561957F4F8F4F9F4F88
S11303700895E89409C097FB3EF490958095709594
S113038061957F4F8F4F9F4F9923A9F0F92F96E9DD
S1130390BB279395F695879577956795B795F11152
S11303A0F8CFFAF4BB0F11F460FF1BC06F5F7F4FEF
S11303B08F4F9F4F16C0882311F096E911C0772301
S11303C021F09EE8872F762F05C0662371F096E80A
S11303D0862F70E060E02AF09A95660F771F881FD9
S11303E0DAF7880F9695879597F90895990F00087D
S11303F0550FAA0BE0E8FEEF16161706E807F907F3
S1130400C0F012161306E407F50798F0621B730B8D
S1130410840B950B39F40A2661F0232B242B252B0E
S113042021F408950A2609F4A140A6958FEF811DB1
S1130430811D089597F99F6780E870E060E0089552
S11304409FEF80EC089500240A94161617061806E8
S11304500906089500240A941216130614060506C4
S11304600895092E0394000C11F4882352F0BB0F55
S113047040F4BF2B11F460FF04C06F5F7F4F8F4FB8
S11304809F4F089557FD9058440F551F59F05F3FF3
S113049071F04795880F97FB991F61F09F3F79F0A2
S11304A087950895121613061406551FF2CF469524
S11304B0F1DF08C0161617061806991FF1CF8695A6
S11304C07105610508940895E894BB27662777278A
S11304D0CB0197F908950E94F60108F48FEF08956F
S11304E00E9483020C9431020E94230238F00E947D
S11304F02A0220F0952311F00C941A020C94200285
S113050011240C9465020E94420270F3959FC1F37A
S1130510950F50E0551F629FF001729FBB27F00DAD
S1130520B11D639FAA27F00DB11DAA1F649F662702
S1130530B00DA11D661F829F2227B00DA11D621F51
S1130540739FB00DA11D621F839FA00D611D221F0B
S1130550749F3327A00D611D231F849F600D211DEF
S1130560822F762F6A2F11249F5750409AF0F1F072
S113057088234AF0EE0FFF1FBB1F661F771F881FDB
S113058091505040A9F79E3F510580F00C941A02F7
S11305900C9465025F3FE4F3983ED4F38695779517
S11305A06795B795F795E7959F5FC1F7FE2B880F81
S11105B0911D9695879597F90895F894FFCFBD
S9030000FC
