:100000000C9434000C9449000C9449000C94490061
:100010000C9449000C9449000C9449000C9449003C
:100020000C9449000C9449000C9449000C9449002C
:100030000C9449000C9449000C9449000C9449001C
:100040000C9449000C9449000C9449000C9449000C
:100050000C9449000C9449000C9449000C944900FC
:100060000C9449000C94490011241FBECFEFD8E036
:10007000DEBFCDBF11E0A0E0B1E0E6E4F6E002C0F3
:1000800005900D92A630B107D9F70E94C9000C94D3
:1000900021030C940000ECE7F0E080818064808311
:1000A000EAE7F0E0808180688083808184608083DB
:1000B0000895ECE7F0E09081907F90839081892B08
:1000C0008083EAE7F0E080818064808380917A0019
:1000D00084FFFCCFEAE7F0E080818061808380913B
:1000E00078009091790008958F929F92AF92BF927D
:1000F000CF92DF92EF92FF929C01A8E8B3E10E94B9
:100100001203052E5AE096958795779567955A952F
:10011000D1F7502D0E9417026B017C0120E030E0E6
:1001200040E251E40E947D020E94E8014B015C0123
:100130009B01ADECBCEC0E941203969587959695B9
:100140008795969587959C01220F331F880F991FDD
:10015000880F991F880F991F820F931F9401281BE6
:10016000390B2530310530F4C701B6010E94E80192
:10017000CB0106C0C701B6010E94E801CB01019680
:10018000FF90EF90DF90CF90BF90AF909F908F90B7
:100190000895CF93DF93CDB7DEB7C05AD1090FB61C
:1001A000F894DEBF0FBECDBF8CE090E00E94250129
:1001B0000E944B00F12C1FC00F2D10E080E00E9428
:1001C00059000E947400000F111FE1E0F0E0EC0FF5
:1001D000FD1FE00FF11F9183808381E00E94590091
:1001E0000E947400E1E5F0E0EC0FFD1FE00FF11F4D
:1001F00091838083F39487E28F15F0F6F12C21C070
:100200000F2D10E0000F111FE1E0F0E0EC0FFD1FDB
:10021000E00FF11F808191810E94560180E091E002
:100220000E943901E1E5F0E0EC0FFD1FE00FF11F46
:10023000808191810E94560183E091E00E94390102
:10024000F39487E28F15E0F6FFCFE1ECF0E0208138
:10025000286020838093C400E5ECF0E08081982B37
:10026000908308959091C00095FFFCCF8093C600C5
:1002700008951F93CF93DF93EC0110E007C0FE01B8
:10028000E80FF91F80810E9432011F5F812F90E0EB
:10029000FE0101900020E9F73197EC1BFD0B8E1752
:1002A0009F0768F3DF91CF911F910895EF92FF921E
:1002B0000F931F93CF93DF93AC019C01ADECBCEC8B
:1002C0000E941203EC01D695C795D695C795D69591
:1002D000C795CE01880F991FCC0FDD1FCC0FDD1FF6
:1002E000CC0FDD1FC80FD91FCA018C1B9D0BEC0161
:1002F0000E941203FC01F695E795F695E795F695B1
:10030000E7959F010E9412038C011695079516959B
:10031000079516950795C801880F991F000F111FA3
:10032000000F111F000F111F080F191FCF01801B95
:10033000910B8C019A013695279536952795ABE759
:10034000B4E10E941203FC01F695E7959F01ADEC24
:10035000BCEC0E9412037C01F694E794F694E794B7
:10036000F694E794C701880F991FEE0CFF1CEE0C62
:10037000FF1CEE0CFF1CE80EF91ECF018E199F0921
:100380007C019A01369527953695279536952795C0
:10039000A5ECB0E20E941203929582958F70892796
:1003A0009F708927805D0E94320180E38E0D0E943C
:1003B000320180E3800F0E9432018C2F805D0E9409
:1003C0003201DF91CF911F910F91FF90EF9008952F
:1003D0000E945C0288F09F5798F0B92F9927B75177
:1003E000B0F0E1F0660F771F881F991F1AF0BA95D9
:1003F000C9F714C0B13091F00E947602B1E00895BF
:100400000C947602672F782F8827B85F39F0B93FB0
:10041000CCF3869577956795B395D9F73EF490958B
:100420008095709561957F4F8F4F9F4F0895E89409
:1004300009C097FB3EF490958095709561957F4F2C
:100440008F4F9F4F9923A9F0F92F96E9BB279395DA
:10045000F695879577956795B795F111F8CFFAF4EA
:10046000BB0F11F460FF1BC06F5F7F4F8F4F9F4F1B
:1004700016C0882311F096E911C0772321F09EE879
:10048000872F762F05C0662371F096E8862F70E0DF
:1004900060E02AF09A95660F771F881FDAF7880FB9
:1004A0009695879597F9089557FD9058440F551FD5
:1004B00059F05F3F71F04795880F97FB991F61F0E6
:1004C0009F3F79F087950895121613061406551F5D
:1004D000F2CF4695F1DF08C0161617061806991FC9
:1004E000F1CF86957105610508940895E894BB27BE
:1004F00066277727CB0197F908950E9490020C9404
:1005000001030E94F30238F00E94FA0220F09523C2
:1005100011F00C94EA020C94F00211240C9477026E
:100520000E94540270F3959FC1F3950F50E0551F40
:10053000629FF001729FBB27F00DB11D639FAA2738
:10054000F00DB11DAA1F649F6627B00DA11D661F87
:10055000829F2227B00DA11D621F739FB00DA11DA8
:10056000621F839FA00D611D221F749F3327A00D62
:10057000611D231F849F600D211D822F762F6A2FFE
:1005800011249F5750409AF0F1F088234AF0EE0F63
:10059000FF1FBB1F661F771F881F91505040A9F790
:1005A0009E3F510580F00C94EA020C9477025F3F65
:1005B000E4F3983ED4F3869577956795B795F795CC
:1005C000E7959F5FC1F7FE2B880F911D9695879544
:1005D00097F9089597F99F6780E870E060E00895C3
:1005E0009FEF80EC089500240A941616170618064B
:1005F0000906089500240A94121613061406050627
:100600000895092E0394000C11F4882352F0BB0FB7
:1006100040F4BF2B11F460FF04C06F5F7F4F8F4F1A
:100620009F4F0895A29FB001B39FC001A39F700D7B
:10063000811D1124911DB29F700D811D1124911DEA
:060640000895F894FFCFBD
:060646002C20000D0A004B
:00000001FF
